:100000000C9477000C9478050C9451050C949F0087
:100010000C949F000C949F000C949F000C949F00E4
:100020000C949F000C949F000C949F000C94F70577
:100030000C949F000C949F000C949F000C949F00C4
:100040000C9407050C949F000C94C5050C949F0517
:100050000C949F000C949F000C949F000C949F00A4
:100060000C949F000C949F004E414E494E495459A8
:10007000494E46CDCCCC3D0AD7233C17B7D1387773
:10008000CC2B329595E6241FB14F0A000020410089
:1000900000C84200401C4620BCBE4CCA1B0E5AAED3
:1000A000C59D740000000023002600290000000008
:1000B00000250028002B0000000000240027002A53
:1000C0000004040404040404040202020202020301
:1000D000030303030301020408102040800102040B
:1000E00008102001020408102000E706D40911249A
:1000F0001FBECFEFD8E0DEBFCDBF22E0A8E4B1E065
:1001000001C01D92A531B207E1F711E0A0E0B1E016
:10011000EAE5F2E202C005900D92A834B107D9F7E2
:1001200010E0C6E7D0E004C02197FE010E94B30DA5
:10013000C537D107C9F70E9422070C9420110C94EF
:100140000000CF93DF9390E0FC01EB52FF4F24912E
:100150008F539F4FFC0184918823C1F090E0880F5A
:10016000991FFC01E954FF4FC591D491FC01E3555F
:10017000FF4FA591B4919FB7F8943881822F809555
:1001800083238883EC91E22BEC939FBFDF91CF9187
:1001900008950895AF92BF92CF92DF92EF92FF92AF
:1001A0000F931F93CF93DF936C017B018B01040F9F
:1001B000151FEB015E01AE18BF08C017D10759F03B
:1001C0006991D601ED91FC910190F081E02DC6017D
:1001D0000995892B79F7C501DF91CF911F910F9177
:1001E000FF90EF90DF90CF90BF90AF900895FC010B
:1001F000538D448D252F30E0842F90E0821B930B8C
:10020000541710F0CF96089501970895FC01918D31
:10021000828D981761F0A28DAE0FBF2FB11D5D9634
:100220008C91928D9F5F9F73928F90E008958FEFD6
:100230009FEF0895FC01918D828D981731F0828D8A
:10024000E80FF11D858D90E008958FEF9FEF0895E1
:10025000FC01918D228D892F90E0805C9F4F821B45
:1002600091098F73992708958CE691E00E942801E7
:1002700021E0892B09F420E0822F089580E090E0AE
:10028000892B29F00E94340181110C9400000895FB
:10029000FC01A48DA80FB92FB11DA35ABF4F2C91FB
:1002A000848D90E001968F739927848FA689B789F2
:1002B0002C93A089B1898C91837080648C93938DE9
:1002C000848D981306C00288F389E02D80818F7D8C
:1002D00080830895EF92FF920F931F93CF93DF9344
:1002E000EC0181E0888F9B8D8C8D98131AC0E88972
:1002F000F989808185FF15C09FB7F894EE89FF8941
:100300006083E889F98980818370806480839FBFDE
:1003100081E090E0DF91CF911F910F91FF90EF90DE
:100320000895F62E0B8D10E00F5F1F4F0F731127EE
:10033000E02E8C8D8E110CC00FB607FCFACFE88929
:10034000F989808185FFF5CFCE010E944801F1CF68
:10035000EB8DEC0FFD2FF11DE35AFF4FF0829FB79D
:10036000F8940B8FEA89FB8980818062CFCF682F58
:100370008CE691E00C946A01CF93DF93EC01888DB9
:100380008823B9F0AA89BB89E889F9898C9185FD10
:1003900003C0808186FD0DC00FB607FCF7CF8C919E
:1003A00085FFF2CF808185FFEDCFCE010E9448010D
:1003B000E9CFDF91CF91089590E0FC01EB52FF4F20
:1003C0002491FC01EF53FF4FE491F0E0EE0FFF1F8B
:1003D000ED55FF4FA591B491EC91E22381E009F432
:1003E00080E0089583E00E94DC0120915801309163
:1003F000590140915A0150915B0160915C017091EB
:100400005D018823C1F080915E0190915F01A1E0C0
:100410000E94920D209358013093590140935A0144
:1004200050935B0160935C0170935D0180935E016A
:1004300090935F01089580915E0190915F01AFEF0D
:10044000E7CFFC0101900020E9F73197AF01481B8D
:10045000590BBC018CE691E00C94CA008F929F92DC
:10046000AF92BF920F931F93CF93DF93CDB7DEB7B9
:10047000A1970FB6F894DEBF0FBECDBF19A24230D0
:1004800008F44AE08E010F5D1F4F842E912CB12C91
:10049000A12CA50194010E94010DE62FB901CA010A
:1004A000EA30F4F4E05DD801EE938D01232B242B88
:1004B000252B79F790E080E0109719F0CD010E948C
:1004C0002102A1960FB6F894DEBF0FBECDBFDF911B
:1004D000CF911F910F91BF90AF909F908F900895F3
:1004E000E95CE1CF2F923F924F925F926F927F92A1
:1004F0008F929F92AF92BF92CF92DF92EF92FF9234
:100500000F931F93CF93DF93CDB7DEB7C254D109BA
:100510000FB6F894DEBF0FBECDBF022F432E542E70
:10052000152F3B011C01A0E00E94A70D0CF069C033
:100530006DE28CE691E00E946A01202F342D452D5A
:10054000512FB301C1010E94820D022F432E542E60
:10055000152F3B011C0188248394912C22960FAF08
:10056000229723964FAE2397B12FF62DE72D412CDE
:10057000CE0101963C018AE0A82EB12CC12CD12CD1
:10058000E12CF12C00E010E022962FAD229723966B
:100590003FAD2397452D5B2F6F2F7E2FC1010E940A
:1005A000250DF301E40DF11D2296AFAD2297BAE0BF
:1005B0002B9FA0191124A08322962FAF2297239658
:1005C0003FAF2397542EB52FF62FE72F1C014394EE
:1005D000A0E00E94A70D79F6460C572C511C10E0A4
:1005E00000E064147504D1F0F20162912F016A30C9
:1005F000B8F5605D8CE691E00E946A01080F191F52
:10060000F0CFA0E0912C812C0E94A70D09F0A6CF7D
:1006100080E30E94B7018C01912C812C81E291E052
:100620000E942102800F911F880D991DCE5BDF4F24
:100630000FB6F894DEBF0FBECDBFDF91CF911F91F3
:100640000F91FF90EF90DF90CF90BF90AF909F9071
:100650008F907F906F905F904F903F902F90089574
:10066000695CC8CFCF93DF9384E291E00E942102BE
:10067000EC0181E291E00E9421028C0F9D1FDF912D
:10068000CF910895FC0180819181009711F00C9425
:10069000C10F0895CF92DF92EF92FF92CF93DF9335
:1006A00097FF19C06B017C018DE20E94B701EC013C
:1006B00066277727CB016C197D098E099F094AE0CF
:1006C0000E942E028C0F9D1FDF91CF91FF90EF9023
:1006D000DF90CF9008954AE0DF91CF91FF90EF90A7
:1006E000DF90CF900C942E024F925F926F927F9288
:1006F0008F929F92AF92BF92CF92DF92EF92FF9232
:100700006B017C01AC019B010E94200F8823C1F08A
:1007100087E291E00E9421027C0181E291E00E9447
:1007200021028E0D9F1DFF90EF90DF90CF90BF9024
:10073000AF909F908F907F906F905F904F900895B3
:1007400046015701E894B7F82FEF3FEF4FE75FE717
:10075000C501B4010E94200F81110DC02FEF3FEFA2
:100760004FE75FE7C501B4010E94890B18161CF41E
:100770008BE291E0CFCF2FEF3FEF4FE75FE4C70170
:10078000B6010E941B0F18161CF48FE291E0C2CF35
:100790002FEF3FEF4FE75FECC701B6010E94890BD7
:1007A00087FDF3CF20E030E0A901C701B6010E9428
:1007B000890BB12CA12C87FF08C08DE20E94B701E4
:1007C0005C01F7FAF094F7F8F0942AE037ED43EA89
:1007D0005BE3C701B6010E94BA0D2B013C010E94E8
:1007E000980E6B017C010E948E0B9B01AC01C30132
:1007F000B2010E94B90D2B013C014AE0C701B601CC
:100800000E942E027C01EA0CFB1C8EE20E94B701C2
:10081000E80EF91E20E030E040E251E4C301B201ED
:100820000E94EF0B2B013C010E94980E4B01B12C52
:10083000A12C4AE0C501B4010E942E02E80EF91E67
:10084000C501B4010E948E0B9B01AC01C301B20132
:100850000E94B90D20E030E040E251E40E94EF0B2D
:100860000E94980E90E080E04AE00E942E02E80E7E
:10087000F91E53CFFC0124813581232B39F421E06B
:10088000FB018081882349F020E007C080819181AD
:100890000E94101121E0892BB9F7822F08950F9340
:1008A0001F93CF93DF93EC0188819981009759F0D2
:1008B0002A813B812617370730F081E0DF91CF9105
:1008C0001F910F9108958B016F5F7F4F0E944A1017
:1008D000009759F0998388831B830A832C813D817B
:1008E000232B59F7FC011082E8CF80E0E7CFEF928D
:1008F000FF920F931F93CF93DF93EC017B018A014B
:10090000BA010E944F0428813981811114C0211538
:10091000310519F0C9010E94C10F198218821D8288
:100920001C821B821A82CE01DF91CF911F910F9101
:10093000FF90EF9008951D830C83B701C9010E94B9
:100940001911F1CFCF92DF92EF92FF920F931F9385
:10095000CF93DF93EC016B017A014617570720F420
:100960008D2D6A01E62EF82E198218821B821A82BA
:100970001D821C8250E040E063E271E0CE010E94E3
:10098000770400910D0210910E02C016D10640F5B9
:10099000E016F10608F48701E0910902F0910A02DD
:1009A000E00FF11FF08010826091090270910A023D
:1009B0006C0D7D1D61157105E9F0FB0101900020B2
:1009C000E9F73197AF01461B570BCE010E94770420
:1009D0008091090290910A02080F191FF801F08214
:1009E000CE01DF91CF911F910F91FF90EF90DF909B
:1009F000CF90089588819981009711F00E94C10FCE
:100A0000198218821D821C821B821A82E1CF1F92DA
:100A10000F920FB60F9211242F933F938F939F93B2
:100A2000AF93BF938091680190916901A0916A0191
:100A3000B0916B013091670123E0230F2D3758F5FA
:100A40000196A11DB11D20936701809368019093C9
:100A50006901A0936A01B0936B0180916301909149
:100A60006401A0916501B09166010196A11DB11DBF
:100A70008093630190936401A0936501B093660134
:100A8000BF91AF919F918F913F912F910F900FBE8A
:100A90000F901F90189526E8230F0296A11DB11DF7
:100AA000D2CF1F920F920FB60F9211242F933F9324
:100AB0004F935F936F937F938F939F93AF93BF9366
:100AC000EF93FF93E0910201F09103010995FF91EB
:100AD000EF91BF91AF919F918F917F916F915F91B6
:100AE0004F913F912F910F900FBE0F901F9018952F
:100AF0001F920F920FB60F9211242F933F934F9393
:100B00005F936F937F938F939F93AF93BF93EF9375
:100B1000FF93E0910001F09101010995FF91EF91A0
:100B2000BF91AF919F918F917F916F915F914F9105
:100B30003F912F910F900FBE0F901F9018951F920D
:100B40000F920FB60F9211242F933F934F935F9301
:100B50006F937F938F939F93AF93BF93EF93FF9385
:100B60008CE691E00E944801FF91EF91BF91AF9117
:100B70009F918F917F916F915F914F913F912F91B5
:100B80000F900FBE0F901F9018951F920F920FB6E7
:100B90000F9211242F938F939F93EF93FF93E091E4
:100BA0007C01F0917D018081E0918201F0918301CF
:100BB00082FD1BC09081809185018F5F8F73209192
:100BC0008601821741F0E0918501F0E0E459FE4F83
:100BD000958F80938501FF91EF919F918F912F9138
:100BE0000F900FBE0F901F9018958081F4CF1F9229
:100BF0000F920FB60F9211244F925F926F927F92D5
:100C0000AF92BF92CF92DF92EF92FF920F931F931A
:100C10002F933F934F935F936F937F938F939F9304
:100C2000AF93BF93EF93FF93809148019091490157
:100C3000A0914A01B0914B010196A11DB11D809375
:100C4000480190934901A0934A01B0934B01409110
:100C50004C0150914D0160914E0170914F018417EC
:100C60009507A607B70709F054C0109248011092E3
:100C7000490110924A0110924B0180E50E94B70190
:100C800040900401509005016090060170900701AA
:100C900080910801882309F466C020E030E040E834
:100CA0005FE3C301B2010E94890B2091580130918A
:100CB000590140915A0150915B0160915C01709122
:100CC0005D01811143C080915E0190915F010E949E
:100CD0007202709158016091590150915A014091EE
:100CE0005B0130915C0120915D0190915E018091EA
:100CF0005F017093500160935101509352014093F2
:100D000053013093540120935501909356018093E1
:100D10005701FF91EF91BF91AF919F918F917F917B
:100D20006F915F914F913F912F911F910F91FF9084
:100D3000EF90DF90CF90BF90AF907F906F905F90DB
:100D40004F900F900FBE0F901F90189580915E01ED
:100D500090915F010E94C70EA30192010E94260E8E
:100D60000E947403B6CFA0905001B0905101C09082
:100D70005201D0905301E0905401F0905501009140
:100D800056011091570120E030E040E85FE3C301D5
:100D9000B2010E94890B2091580130915901409174
:100DA0005A0150915B0160915C0170915D0181116C
:100DB00007C080915E0190915F010E949E0D87CFD8
:100DC00080915E0190915F010E949E0DC3CFECE681
:100DD000F1E01382128288EE93E0A0E0B0E0848319
:100DE0009583A683B78383E191E09183808385EC2B
:100DF00090E09587848784EC90E09787868780ECE5
:100E000090E0918B808B81EC90E0938B828B82ECD5
:100E100090E0958B848B86EC90E0978B868B118E7F
:100E2000128E138E148EE9E0F2E01182108213828A
:100E300012821582148250E040E063E271E0CF013B
:100E40000C947704CF93DF93CDB7DEB762970FB6DC
:100E5000F894DEBF0FBECDBF789484B5826084BDA8
:100E600084B5816084BD85B5826085BD85B58160AE
:100E700085BD80916E00816080936E00109281002C
:100E800080918100826080938100809181008160E7
:100E900080938100809180008160809380008091A8
:100EA000B10084608093B1008091B0008160809334
:100EB000B00080917A00846080937A0080917A00FB
:100EC000826080937A0080917A00816080937A00BA
:100ED00080917A00806880937A001092C100E0913E
:100EE0007C01F0917D0182E08083E0917801F091B6
:100EF00079011082E0917A01F0917B0180E1808399
:100F000010928401E0918001F091810186E080835C
:100F1000E0917E01F0917F01808180618083E0918A
:100F20007E01F0917F01808188608083E0917E0165
:100F3000F0917F01808180688083E0917E01F09153
:100F40007F0180818F7D808382E00E94A10083E009
:100F50000E94A10084E00E94A10082EF91E09093A2
:100F60000101809300018091690083608093690092
:100F7000E89AF894109285001092840010928100F3
:100F80001092800080918100886080938100809120
:100F90008100816080938100809180008F708093B8
:100FA0008000809181008D7F8093810080918100FD
:100FB0008160809381008FE79EE390938900809306
:100FC000880078944AE068E070E080E090E00E9459
:100FD0002E0281E291E00E9421026624639400E0E7
:100FE00010E077247394809162018823A1F084E05B
:100FF0000E94DC0190916101891769F08093610181
:101000008625682F70E090E080E00E944A0381E22C
:1010100091E00E9421028CE691E00E942801892B38
:1010200009F4EBC08CE691E00E942801892B49F07D
:101030008CE691E00E9406018A3009F03FC0709270
:10104000600180916001882309F4D7C044E050E03A
:1010500070E060E0CE010D960E94A20463E371E0AF
:10106000CE010D960E943A04882309F459C040919C
:101070000D0250910E0265E070E0CE0101960E94D3
:10108000A20489819A81C12CD12C7601009721F08C
:101090000E94D8096B017C01CE0101960E94420397
:1010A00020E030E0A901C701B6010E94890B81113F
:1010B0002AC0709208010E94320391C089831A826B
:1010C000E0900D02F0900E022FEFE21AF20AB70143
:1010D00089E092E00E944F04882309F4A3CF209175
:1010E000090230910A0280910D0290910E02BE0118
:1010F0006F5F7F4F820F931F0E941911F0920E02B3
:10110000E0920D028FCF20E030E040E85FE3C701BE
:10111000B6010E94890B8111CECF10920801CBCF6E
:1011200068E371E0CE010D960E943A04882309F429
:10113000DFC040910D0250910E0265E070E0CE01DB
:1011400007960E94A20463E271E0CE0107960E9416
:101150003A04882309F4A4C080916F008D7F8093A6
:101160006F0080E50E94B70180910801882309F48F
:1011700050C0209158013091590140915A0150912D
:101180005B0160915C0170915D0180915E019091C5
:101190005F010E9472027091580160915901509153
:1011A0005A0140915B0130915C0120915D01909169
:1011B0005E0180915F0170935001609351015093E3
:1011C0005201409353013093540120935501909361
:1011D000560180935701CE0107960E944203109258
:1011E000600150E040E063E271E089E092E00E943B
:1011F0007704CE010D960E9442030115110509F4F2
:10120000F2CE0E943401882309F4EDCE0E94000042
:10121000EACE8090580190905901A0905A01B09068
:101220005B01C0905C01D0905D01E0905E01F090A8
:101230005F018091500190915101A0915201B091B4
:101240005301A5019401281B390B4A0B5B0BCA0102
:10125000B901B0915801A0915901F0915A01E09162
:101260005B0150915C0140915D0130915E012091E4
:101270005F01B0935001A0935101F0935201E093AC
:1012800053015093540140935501309356012093DC
:1012900057010E944A0381E291E00E9421029BCF04
:1012A00040910D0250910E0266E070E0CE01019671
:1012B0000E94A20489819A810097B1F00E94DC0902
:1012C00060934C0170934D0180934E0190934F01B8
:1012D000CE0101960E9442030E94320380916F006A
:1012E000826080936F0077CF60E070E0CB01E8CF41
:1012F0006DE371E0CE010D960E943A04882309F156
:1013000040910D0250910E0266E070E0CE01019610
:101310000E94A20489819A81009779F00E94D809DD
:101320006093040170930501809306019093070177
:10133000CE0101960E944203BECE60E070E0CB0178
:10134000EFCF62E471E0CE010D960E943A0488234B
:1013500009F445CF80910D0290910E02069708F492
:101360003ECFE0910902F0910A02309709F437CF9D
:101370008581863599F41092620184E00E94DC0137
:10138000809361018625682F70E090E080E00E94E4
:101390004A0381E291E00E94210221CF843509F0C5
:1013A0001ECF7092620187CE89E092E00C944203D6
:1013B000662777270C94180A1F93FC019927882722
:1013C000BC01E89411911032E9F3193010F01E308D
:1013D000C8F31B3251F01D3249F4689406C00E94D4
:1013E000030A610F711D811D911D119110531A3057
:1013F000B0F33EF490958095709561957F4F8F4F37
:101400009F4F1F910895592F482F372F262F660F72
:10141000771F881F991F660F771F881F991F620FFC
:10142000731F841F951F660F771F881F991F0895CC
:10143000B0E0A0E0EEE1FAE00C94C10C5C017B01AD
:101440006115710519F0DB018D939C9385010F5F88
:101450001F4FF501D0818D2F90E00E94680B6C0129
:10146000892BB9F5DD32B9F50F5F1F4FD501119604
:10147000DC91C1E05801F1E0AF1AB10843E050E05F
:1014800060E770E0C5010E94710B892B69F5680166
:1014900082E0C80ED11C45E050E06BE670E0C6016A
:1014A0000E94710B892B21F4680197E0C90ED11CB1
:1014B000E114F10419F0D701CD92DC9260E070E004
:1014C00080E89FEFC111FFC060E070E080E89FE717
:1014D000FAC05801BBCFDB3229F485010E5F1F4FE4
:1014E000F501D181C0E0C6CF43E050E068E670E08E
:1014F000C5010E94710B892BE9F0F80110E000E0B2
:1015000020E030E0A9015F01B0ED8B2E8D0E89E067
:101510008815C8F19C2E689491F88C2F8870C2FFB2
:1015200016C0811102C00F5F1F4F3196D501DC91AB
:10153000C92DE9CFE114F10429F00E5F1F4FF70127
:101540001183008360E070E080EC9FE7BCC08823DB
:1015500011F001501109A5E0B0E00E94B00C9B0110
:10156000AC01220F331F441F551F280D311D411D93
:10157000511D283999E93907490799E15907A8F216
:10158000C6609C2ED2CFAEEF8A1206C0C3FD3CC00F
:101590009C2E689493F8C9CFDF7DD534A9F580815E
:1015A0008D3239F4C061DF011296818162E070E012
:1015B00006C0DF018B32C1F3119661E070E0805309
:1015C0005D01A61AB70A8A30F8F4E0E8CE16ECE01E
:1015D000DE065CF4B601660F771F660F771FC60E36
:1015E000D71ECC0CDD1CC80ED11C5D01FFEFAF1A5D
:1015F000BF0A8C9180538A30A8F1C4FF03C0D194F4
:10160000C194D1080C0D1D1DC1FF09C0E114F104E6
:1016100031F081E0A81AB108D701AD92BC92CA019D
:10162000B9010E948E0BC370C33009F490584B016E
:101630005C0120E030E0A9010E94890B882309F4B5
:1016400040C0CFE9D0E017FF05C011950195110901
:10165000C7E8D0E06E01B8E1CB1AD10880E2E82EED
:10166000F12C0FC0D501B1CFFE01259135914591E7
:1016700054910E191F09C501B4010E94EF0B4B01D3
:101680005C01D501C4010E151F0574F72497F5946C
:10169000E794CC16DD06A9F78A2F880F8B2F881FB9
:1016A0008F3F49F020E030E0A901C501B4010E945C
:1016B000890B811106C082E290E090931002809322
:1016C0000F02C501B401CDB7DEB7ECE00C94DD0C20
:1016D00091110C945C0C803219F089508550C8F738
:1016E0000895FB01DC014150504088F08D91813418
:1016F0001CF08B350CF4805E659161341CF06B3509
:101700000CF4605E861B611171F3990B0895881BC0
:10171000FCCF0E94CB0B08F481E00895E89409C047
:1017200097FB3EF490958095709561957F4F8F4F14
:101730009F4F9923A9F0F92F96E9BB279395F6952A
:10174000879577956795B795F111F8CFFAF4BB0FA8
:1017500011F460FF1BC06F5F7F4F8F4F9F4F16C00C
:10176000882311F096E911C0772321F09EE8872F96
:10177000762F05C0662371F096E8862F70E060E052
:101780002AF09A95660F771F881FDAF7880F9695CB
:10179000879597F90895990F0008550FAA0BE0E86F
:1017A000FEEF16161706E807F907C0F01216130623
:1017B000E407F50798F0621B730B840B950B39F463
:1017C0000A2661F0232B242B252B21F408950A26C9
:1017D00009F4A140A6958FEF811D811D08950E94F7
:1017E000020C0C94760C0E94680C38F00E946F0C6E
:1017F00020F0952311F00C945F0C0C94650C1124CF
:101800000C94AA0C0E94870C70F3959FC1F3950F5E
:1018100050E0551F629FF001729FBB27F00DB11D74
:10182000639FAA27F00DB11DAA1F649F6627B00D04
:10183000A11D661F829F2227B00DA11D621F739FED
:10184000B00DA11D621F839FA00D611D221F749FFB
:101850003327A00D611D231F849F600D211D822F42
:10186000762F6A2F11249F5750409AF0F1F0882369
:101870004AF0EE0FFF1FBB1F661F771F881F915096
:101880005040A9F79E3F510580F00C945F0C0C94DA
:10189000AA0C5F3FE4F3983ED4F38695779567955D
:1018A000B795F795E7959F5FC1F7FE2B880F911DC0
:1018B0009695879597F9089599278827089597F918
:1018C0009F6780E870E060E008959FEF80EC0895E6
:1018D00000240A941616170618060906089500240F
:1018E0000A9412161306140605060895092E039489
:1018F000000C11F4882352F0BB0F40F4BF2B11F4FD
:1019000060FF04C06F5F7F4F8F4F9F4F089557FD5B
:101910009058440F551F59F05F3F71F04795880F5D
:1019200097FB991F61F09F3F79F0879508951216F4
:1019300013061406551FF2CF4695F1DF08C01616A0
:1019400017061806991FF1CF869571056105089451
:101950000895E894BB2766277727CB0197F9089568
:101960000E94F20CA59F900DB49F900DA49F800D36
:10197000911D112408952F923F924F925F926F9282
:101980007F928F929F92AF92BF92CF92DF92EF920F
:10199000FF920F931F93CF93DF93CDB7DEB7CA1B90
:1019A000DB0B0FB6F894DEBF0FBECDBF09942A88BB
:1019B000398848885F846E847D848C849B84AA8463
:1019C000B984C884DF80EE80FD800C811B81AA81F0
:1019D000B981CE0FD11D0FB6F894DEBF0FBECDBFBB
:1019E000ED010895A29FB001B39FC001A39F700DA8
:1019F000811D1124911DB29F700D811D1124911D17
:101A00000895A1E21A2EAA1BBB1BFD010DC0AA1F3F
:101A1000BB1FEE1FFF1FA217B307E407F50720F057
:101A2000A21BB30BE40BF50B661F771F881F991FD2
:101A30001A9469F760957095809590959B01AC011B
:101A4000BD01CF010895689401C0E8948F929F92E0
:101A5000CF93DF930E94310DDF91CF919F908F90B4
:101A6000089588249924F401E401B0E49F93AA27FF
:101A70009A158B049C04ED05FE05CF05D007A10740
:101A800098F4AD2FDC2FCF2FFE2FE92D982C892E27
:101A9000982F872F762F652F542F432F322F2227F1
:101AA000B85031F7BF9127C01B2EBF91BB27220F23
:101AB000331F441F551F661F771F881F991F881CDF
:101AC000991CEE1FFF1FCC1FDD1FAA1FBB1F8A140E
:101AD0009B04EC05FD05CE05DF05A007B10748F026
:101AE0008A189B08EC09FD09CE09DF09A00BB10B90
:101AF00021601A94E1F62EF49401AF01BE01CD01EC
:101B0000000C08956095709580959095309540955E
:101B1000509521953F4F4F4F5F4F6F4F7F4F8F4FE6
:101B20009F4F08950024A7FD00942A0F301D401DEB
:101B3000501D601D701D801D901D08952A193B09C0
:101B40004C095D096E097F09800B910B08950024F3
:101B5000A7FD00942A173005400550056005700563
:101B6000800590050895EE0FFF1F0590F491E02D7C
:101B700009945058BB27AA270E94D10D0C94760CCB
:101B80000E94680C38F00E946F0C20F039F49F3FDF
:101B900019F426F40C94650C0EF4E095E7FB0C9414
:101BA0005F0CE92F0E94870C58F3BA17620773077E
:101BB0008407950720F079F4A6F50C94A90C0EF48F
:101BC000E0950B2EBA2FA02D0B01B90190010C014D
:101BD000CA01A0011124FF27591B99F0593F50F465
:101BE000503E68F11A16F040A22F232F342F4427BD
:101BF000585FF3CF469537952795A795F0405395B5
:101C0000C9F77EF41F16BA0B620B730B840BBAF084
:101C10009150A1F0FF0FBB1F661F771F881FC2F7EF
:101C20000EC0BA0F621F731F841F48F48795779503
:101C30006795B795F7959E3F08F0B0CF9395880FBD
:101C400008F09927EE0F9795879508950E943A0E10
:101C50000C94760C0E946F0C58F00E94680C40F0B7
:101C600029F45F3F29F00C945F0C51110C94AA0CDD
:101C70000C94650C0E94870C68F39923B1F35523EB
:101C800091F3951B550BBB27AA276217730784078F
:101C900038F09F5F5F4F220F331F441FAA1FA9F325
:101CA00035D00E2E3AF0E0E832D091505040E69513
:101CB000001CCAF72BD0FE2F29D0660F771F881F74
:101CC000BB1F261737074807AB07B0E809F0BB0B67
:101CD000802DBF01FF2793585F4F3AF09E3F51057B
:101CE00078F00C945F0C0C94AA0C5F3FE4F3983EE0
:101CF000D4F3869577956795B795F7959F5FC9F764
:101D0000880F911D9695879597F90895E1E0660FE4
:101D1000771F881FBB1F621773078407BA0720F05D
:101D2000621B730B840BBA0BEE1F88F7E0950895C6
:101D30000E948F0C88F09F5798F0B92F9927B751C0
:101D4000B0F0E1F0660F771F881F991F1AF0BA955F
:101D5000C9F714C0B13091F00E94A90CB1E0089508
:101D60000C94A90C672F782F8827B85F39F0B93FFA
:101D7000CCF3869577956795B395D9F73EF4909512
:101D80008095709561957F4F8F4F9F4F089597FB7A
:101D900016F40E940B0F0C94CE0EE894F92F96EBDC
:101DA000FF2381F0121613061406440B9395F69543
:101DB00087957795679557954040FF23B9F71BC0E6
:101DC00099270895882351F49850D2F7872B762FBE
:101DD000652F542F432F322F20E0B1F31216130634
:101DE0001406440B88233AF09A95440F551F661F3A
:101DF000771F881FCAF755234AF4440F551F11F463
:101E000060FF04C06F5F7F4F8F4F9F4F880F969585
:101E1000879597F908959095809570956095509560
:101E20004095309521953F4F4F4F5F4F6F4F7F4FFC
:101E30008F4F9F4F08950E94CB0B08F48FEF0895AA
:101E40000E94CB0B880B990B08950F931F93CF9390
:101E5000DF938230910510F482E090E0E09113026C
:101E6000F091140230E020E0B0E0A0E0309799F467
:101E70002115310509F44AC0281B390B24303105DE
:101E8000D8F58A819B816115710589F1FB019383E6
:101E90008283FE0111C04081518102811381481764
:101EA0005907E0F04817590799F4109761F0129616
:101EB0000C93129713961C933296CF01DF91CF911A
:101EC0001F910F9108950093130210931402F4CF01
:101ED0002115310551F04217530738F0A901DB01F4
:101EE0009A01BD01DF01F801C1CFEF01F9CF909355
:101EF000140280931302CDCFFE01E20FF31F8193F2
:101F000091932250310939832883D7CF2091110230
:101F100030911202232B41F420910B0130910C01DE
:101F200030931202209311022091090130910A018D
:101F30002115310541F42DB73EB740910D01509167
:101F40000E01241B350BE0911102F0911202E217F1
:101F5000F307A0F42E1B3F0B2817390778F0AC01CC
:101F60004E5F5F4F2417350748F04E0F5F1F5093A9
:101F7000120240931102819391939FCFF0E0E0E031
:101F80009CCFCF93DF930097E9F0FC013297138247
:101F90001282A0911302B0911402ED0130E020E012
:101FA0001097A1F420813181820F931F209111029B
:101FB000309112022817390709F061C0F09312021C
:101FC000E0931102DF91CF910895EA01CE17DF0768
:101FD000E8F54A815B819E0141155105B1F7E901A0
:101FE000FB83EA8349915991C40FD51FEC17FD0774
:101FF00061F4808191810296840F951FE901998394
:102000008883828193819B838A83F0E0E0E012964B
:102010008D919C9113970097B9F52D913C91119753
:10202000CD010296820F931F20911102309112026E
:102030002817390739F6309751F51092140210928B
:102040001302B0931202A0931102BCCFD383C283B8
:1020500040815181840F951FC817D90761F44E5FE5
:102060005F4F88819981480F591F518340838A812E
:102070009B81938382832115310509F0B0CFF093C2
:102080001402E09313029ECFFD01DC01C0CF138246
:102090001282D7CFB0E0A0E0E0E5F0E10C94BD0CF7
:1020A0008C01009751F4CB010E94250F8C01C801CF
:1020B000CDB7DEB7E0E10C94D90CFC01E60FF71FB9
:1020C0009C0122503109E217F30708F49DC0D901A1
:1020D000CD91DC911197C617D70798F0C530D1057F
:1020E00030F3CE0104978617970708F3C61BD70B6A
:1020F0002297C193D1936D937C93CF010E94C10F1E
:10210000D6CF5B01AC1ABD0A4C018C0E9D1EA0916E
:102110001302B0911402512C412CF12CE12C109798
:1021200031F580911102909112028815990509F0FC
:102130005CC04616570608F058C08091090190917E
:102140000A01009741F48DB79EB740910D0150915F
:102150000E01841B950BE817F90708F055C0F093A2
:102160001202E0931102F90171836083A0CF8D9177
:102170009C91119712966C90129713967C901397DE
:10218000A815B90559F56C0142E0C40ED11CCA145A
:10219000DB0420F1AC014A195B09DA0112961597AC
:1021A00080F06282738251834083D9016D937C9366
:1021B000E114F10471F0D7011396FC93EE9312979A
:1021C00076CF22968C0F9D1FF90191838083F301B6
:1021D000EFCFF0931402E093130269CF481659062B
:1021E00008F42C017D01D3019ACFCB010E94250F69
:1021F0007C01009749F0AE01B8010E940711C801A7
:102200000E94C10F870153CF10E000E050CFFB01C7
:10221000DC0102C001900D9241505040D8F7089562
:10222000FB01DC018D91019080190110D9F3990B0C
:102230000895FB01DC0101900D920020E1F7089563
:1022400010E0C6E7D0E004C0FE010E94B30D219665
:0A225000C737D107C9F7F894FFCF94
:10225A00C900C9000000803F01000015028000008B
:10226A000000006A01CA00F700BC01280106011A31
:10227A00010D0A004F6B006E616E00696E66006F99
:10228A007666004D333136004D333137004D3331E8
:08229A0038004D33313900001A
:00000001FF
