:100000000C9477000C94C0050C9499050C949F00F7
:100010000C949F000C949F000C949F000C949F00E4
:100020000C949F000C949F000C949F000C943F062E
:100030000C949F000C949F000C949F000C949F00C4
:100040000C944F050C949F000C940D060C94E7053E
:100050000C949F000C949F000C949F000C949F00A4
:100060000C949F000C949F004E414E494E495459A8
:10007000494E46CDCCCC3D0AD7233C17B7D1387773
:10008000CC2B329595E6241FB14F0A000020410089
:1000900000C84200401C4620BCBE4CCA1B0E5AAED3
:1000A000C59D740000000023002600290000000008
:1000B00000250028002B0000000000240027002A53
:1000C0000004040404040404040202020202020301
:1000D000030303030301020408102040800102040B
:1000E000081020010204081020002F07E70A11243D
:1000F0001FBECFEFD8E0DEBFCDBF22E0ACE4B1E061
:1001000001C01D92AA31B207E1F711E0A0E0B1E011
:10011000EAEEF4E202C005900D92AC34B107D9F7D3
:1001200010E0C6E7D0E004C02197FE010E94FB0E5C
:10013000C537D107C9F70E946A070C9468120C945E
:100140000000CF93DF9390E0FC01EB52FF4F24912E
:100150008F539F4FFC0184918823D1F090E0880F4A
:10016000991FFC01E954FF4FA591B491FC01E3559F
:10017000FF4FC591D491623071F49FB7F8943C91D0
:10018000822F809583238C93E8812E2B28839FBF19
:10019000DF91CF9108958FB7F894EC912E2B2C938B
:1001A0008FBFF6CF0895AF92BF92CF92DF92EF92BA
:1001B000FF920F931F93CF93DF936C017B018B0111
:1001C000040F151FEB015E01AE18BF08C017D10761
:1001D00059F06991D601ED91FC910190F081E02DEB
:1001E000C6010995892B79F7C501DF91CF911F9140
:1001F0000F91FF90EF90DF90CF90BF90AF90089558
:10020000FC01538D448D252F30E0842F90E0821B1C
:10021000930B541710F0CF96089501970895FC01A1
:10022000918D828D981761F0A28DAE0FBF2FB11DF9
:100230005D968C91928D9F5F9F73928F90E0089551
:100240008FEF9FEF0895FC01918D828D981731F00B
:10025000828DE80FF11D858D90E008958FEF9FEF5F
:100260000895FC01918D228D892F90E0805C9F4F35
:10027000821B91098F739927089581E791E00E946D
:10028000310121E0892B09F420E0822F089580E0DC
:1002900090E0892B29F00E943D0181110C9400000F
:1002A0000895FC01A48DA80FB92FB11DA35ABF4F0B
:1002B0002C91848D90E001968F739927848FA68965
:1002C000B7892C93A089B1898C91837080648C93B9
:1002D000938D848D981306C00288F389E02D808168
:1002E0008F7D80830895EF92FF920F931F93CF939A
:1002F000DF93EC0181E0888F9B8D8C8D98131AC061
:10030000E889F989808185FF15C09FB7F894EE8947
:10031000FF896083E889F9898081837080648083A4
:100320009FBF81E090E0DF91CF911F910F91FF90EF
:10033000EF900895F62E0B8D10E00F5F1F4F0F7397
:100340001127E02E8C8D8E110CC00FB607FCFACF52
:10035000E889F989808185FFF5CFCE010E9451019E
:10036000F1CFEB8DEC0FFD2FF11DE35AFF4FF08223
:100370009FB7F8940B8FEA89FB8980818062CFCF89
:10038000682F81E791E00C947301CF93DF93EC0128
:10039000888D8823B9F0AA89BB89E889F9898C916D
:1003A00085FD03C0808186FD0DC00FB607FCF7CF29
:1003B0008C9185FFF2CF808185FFEDCFCE010E9429
:1003C0005101E9CFDF91CF91089590E0FC01EB520C
:1003D000FF4F2491FC01EF53FF4FE491F0E0EE0F4B
:1003E000FF1FED55FF4FA591B491EC91E22381E001
:1003F00009F480E0089583E00E94E50120915D0109
:1004000030915E0140915F01509160016091610106
:1004100070916201882309F450C08091630190912A
:100420006401A1E00E94DA0E20935D0130935E0129
:1004300040935F015093600160936101709362018A
:10044000809363019093640120915D0180915E012E
:1004500080915F01809160018091610180916201D2
:10046000809163018091640130E040E050E060E001
:1004700070E080E090E0A0E00E94EF0EE9F490913F
:100480004C0181E0982790934C01E2EEF0E08491DA
:10049000EEECF0E0E491F0E0EE0FFF1FE355FF4FCC
:1004A000A591B4912FB7F89491110DC09C91E82FAC
:1004B000E095E923EC932FBF08958091630190911B
:1004C0006401AFEFAFCFEC91E82BF4CFFC010190CA
:1004D0000020E9F73197AF01481B590BBC0181E7B8
:1004E00091E00C94D3008F929F92AF92BF920F93A2
:1004F0001F93CF93DF93CDB7DEB7A1970FB6F894D4
:10050000DEBF0FBECDBF19A2423008F44AE08E0113
:100510000F5D1F4F842E912CB12CA12CA5019401AD
:100520000E942A0EE62FB901CA01EA30F4F4E05D18
:10053000D801EE938D01232B242B252B79F790E006
:1005400080E0109719F0CD010E946602A1960FB6C7
:10055000F894DEBF0FBECDBFDF91CF911F910F91F9
:10056000BF90AF909F908F900895E95CE1CFCF92BC
:10057000DF92EF92FF92CF93DF934A305105E1F47F
:100580004AE097FF19C06B017C018DE20E94C00117
:10059000EC0166277727CB016C197D098E099F092D
:1005A0004AE00E9473028C0F9D1FDF91CF91FF9054
:1005B000EF90DF90CF900895DF91CF91FF90EF9073
:1005C000DF90CF900C9473022F923F924F925F92E4
:1005D0006F927F928F929F92AF92BF92CF92DF9253
:1005E000EF92FF920F931F93CF93DF93CDB7DEB7B8
:1005F000C254D1090FB6F894DEBF0FBECDBF022F93
:10060000432E542E152F3B011C01A0E00E94EF0E3B
:100610000CF069C06DE281E791E00E947301202F28
:10062000342D452D512FB301C1010E94CA0E022F56
:10063000432E542E152F3B011C0188248394912CAA
:1006400022960FAF229723964FAE2397B12FF62D08
:10065000E72D412CCE0101963C018AE0A82EB12C59
:10066000C12CD12CE12CF12C00E010E022962FAD12
:10067000229723963FAD2397452D5B2F6F2F7E2F1B
:10068000C1010E946D0EF301E40DF11D2296AFAD84
:100690002297BAE02B9FA0191124A08322962FAF96
:1006A000229723963FAF2397542EB52FF62FE72F8F
:1006B0001C014394A0E00E94EF0E79F6460C572CE3
:1006C000511C10E000E064147504D1F0F201629155
:1006D0002F016A30B8F5605D81E791E00E947301F7
:1006E000080F191FF0CFA0E0912C812C0E94EF0E73
:1006F00009F0A6CF80E30E94C0018C01912C812CCF
:1007000081E291E00E946602800F911F880D991D81
:10071000CE5BDF4F0FB6F894DEBF0FBECDBFDF91CB
:10072000CF911F910F91FF90EF90DF90CF90BF90EE
:10073000AF909F908F907F906F905F904F903F9081
:100740002F900895695CC8CFCF93DF9384E291E046
:100750000E946602EC0181E291E00E9466028C0F29
:100760009D1FDF91CF910895FC01808191810097B9
:1007700011F00C94091108954F925F926F927F923D
:100780008F929F92AF92BF92CF92DF92EF92FF92A1
:100790006B017C01AC019B010E9468108823C1F0B1
:1007A00087E291E00E9466027C0181E291E00E9472
:1007B00066028E0D9F1DFF90EF90DF90CF90BF904F
:1007C000AF909F908F907F906F905F904F90089523
:1007D00046015701E894B7F82FEF3FEF4FE75FE787
:1007E000C501B4010E94681081110DC02FEF3FEFC9
:1007F0004FE75FE7C501B4010E949C0C18161CF47A
:100800008BE291E0CFCF2FEF3FEF4FE75FE4C701DF
:10081000B6010E94631018161CF48FE291E0C2CF5B
:100820002FEF3FEF4FE75FECC701B6010E949C0C32
:1008300087FDF3CF20E030E0A901C701B6010E9497
:100840009C0CB12CA12C87FF08C08DE20E94C00136
:100850005C01F7FAF094F7F8F0942AE037ED43EAF8
:100860005BE3C701B6010E94020F2B013C010E940D
:10087000E00F6B017C010E94A10C9B01AC01C30144
:10088000B2010E94010F2B013C014AE0C701B601F1
:100890000E9473027C01EA0CFB1C8EE20E94C001E4
:1008A000E80EF91E20E030E040E251E4C301B2015D
:1008B0000E94020D2B013C010E94E00F4B01B12C64
:1008C000A12C4AE0C501B4010E947302E80EF91E92
:1008D000C501B4010E94A10C9B01AC01C301B2018E
:1008E0000E94010F20E030E040E251E40E94020D3E
:1008F0000E94E00F90E080E04AE00E947302E80E60
:10090000F91E53CFFC0124813581232B39F421E0DA
:10091000FB018081882349F020E007C0808191811C
:100920000E94581221E0892BB9F7822F08950F9366
:100930001F93CF93DF93EC0188819981009759F041
:100940002A813B812617370730F081E0DF91CF9174
:100950001F910F9108958B016F5F7F4F0E9492113D
:10096000009759F0998388831B830A832C813D81EA
:10097000232B59F7FC011082E8CF80E0E7CFEF92FC
:10098000FF920F931F93CF93DF93EC017B018A01BA
:10099000BA010E94970428813981811114C0211560
:1009A000310519F0C9010E940911198218821D82AE
:1009B0001C821B821A82CE01DF91CF911F910F9171
:1009C000FF90EF9008951D830C83B701C9010E9429
:1009D0006112F1CFCF92DF92EF92FF920F931F93AC
:1009E000CF93DF93EC016B017A014617570720F490
:1009F0008D2D6A01E62EF82E198218821B821A822A
:100A00001D821C8250E040E063E271E0CE010E9452
:100A1000BF040091120210911302C016D10640F5D6
:100A2000E016F10608F48701E0910E02F0910F0242
:100A3000E00FF11FF080108260910E0270910F02A2
:100A40006C0D7D1D61157105E9F0FB010190002021
:100A5000E9F73197AF01461B570BCE010E94BF0447
:100A600080910E0290910F02080F191FF801F08279
:100A7000CE01DF91CF911F910F91FF90EF90DF900A
:100A8000CF90089588819981009711F00E940911F3
:100A9000198218821D821C821B821A82E1CF1F924A
:100AA0000F920FB60F9211242F933F938F939F9322
:100AB000AF93BF9380916D0190916E01A0916F01F2
:100AC000B091700130916C0123E0230F2D3758F560
:100AD0000196A11DB11D20936C0180936D0190932F
:100AE0006E01A0936F01B0937001809168019091A5
:100AF0006901A0916A01B0916B010196A11DB11D20
:100B00008093680190936901A0936A01B0936B018F
:100B1000BF91AF919F918F913F912F910F900FBEF9
:100B20000F901F90189526E8230F0296A11DB11D66
:100B3000D2CF1F920F920FB60F9211242F933F9393
:100B40004F935F936F937F938F939F93AF93BF93D5
:100B5000EF93FF93E0910201F09103010995FF915A
:100B6000EF91BF91AF919F918F917F916F915F9125
:100B70004F913F912F910F900FBE0F901F9018959E
:100B80001F920F920FB60F9211242F933F934F9302
:100B90005F936F937F938F939F93AF93BF93EF93E5
:100BA000FF93E0910001F09101010995FF91EF9110
:100BB000BF91AF919F918F917F916F915F914F9175
:100BC0003F912F910F900FBE0F901F9018951F927D
:100BD0000F920FB60F9211242F933F934F935F9371
:100BE0006F937F938F939F93AF93BF93EF93FF93F5
:100BF00081E791E00E945101FF91EF91BF91AF9188
:100C00009F918F917F916F915F914F913F912F9124
:100C10000F900FBE0F901F9018951F920F920FB656
:100C20000F9211242F938F939F93EF93FF93E09153
:100C30008101F09182018081E0918701F09188012A
:100C400082FD1BC0908180918A018F5F8F732091FC
:100C50008B01821741F0E0918A01F0E0EF58FE4FDE
:100C6000958F80938A01FF91EF919F918F912F91A2
:100C70000F900FBE0F901F9018958081F4CF1F9298
:100C80000F920FB60F9211244F925F926F927F9244
:100C9000AF92BF92CF92DF92EF92FF920F931F938A
:100CA0002F933F934F935F936F937F938F939F9374
:100CB000AF93BF93EF93FF9380914D0190914E01BD
:100CC000A0914F01B09150010196A11DB11D8093DB
:100CD0004D0190934E01A0934F01B093500140916C
:100CE0005101509152016091530170915401841748
:100CF0009507A607B70709F054C010924D0110924E
:100D00004E0110924F011092500180E50E94C001E7
:100D10008091080140900401509005016090060107
:100D200070900701882309F466C020E030E040E8B5
:100D30005FE3C301B2010E949C0C20915D013091E0
:100D40005E0140915F01509160016091610170917D
:100D50006201811143C080916301909164010E94FE
:100D6000E40270915D0160915E0150915F014091DC
:100D70006001309161012091620190916301809145
:100D8000640170935501609356015093570140934D
:100D900058013093590120935A0190935B0180933D
:100DA0005C01FF91EF91BF91AF919F918F917F91E6
:100DB0006F915F914F913F912F911F910F91FF90F4
:100DC000EF90DF90CF90BF90AF907F906F905F904B
:100DD0004F900F900FBE0F901F9018958091630158
:100DE000909164010E940F10A30192010E946E0F66
:100DF0000E94BC03B6CFA0905501B0905601C090A0
:100E00005701D0905801E0905901F0905A0100919B
:100E10005B0110915C0120E030E040E85FE3C3013A
:100E2000B2010E949C0C20915D0130915E014091C5
:100E30005F015091600160916101709162018111C7
:100E400007C080916301909164010E94E60E87CFF4
:100E500080916301909164010E94E60EC3CFE1E7A7
:100E6000F1E01382128288EE93E0A0E0B0E0848388
:100E70009583A683B78383E191E09183808385EC9A
:100E800090E09587848784EC90E09787868780EC54
:100E900090E0918B808B81EC90E0938B828B82EC45
:100EA00090E0958B848B86EC90E0978B868B118EEF
:100EB000128E138E148EEEE0F2E0118210821382F5
:100EC00012821582148250E040E063E271E0CF01AB
:100ED0000C94BF04CF93DF93CDB7DEB762970FB604
:100EE000F894DEBF0FBECDBF789484B5826084BD18
:100EF00084B5816084BD85B5826085BD85B581601E
:100F000085BD80916E00816080936E00109281009B
:100F10008091810082608093810080918100816056
:100F20008093810080918000816080938000809117
:100F3000B10084608093B1008091B00081608093A3
:100F4000B00080917A00846080937A0080917A006A
:100F5000826080937A0080917A00816080937A0029
:100F600080917A00806880937A001092C1008AE0B4
:100F700090E00E94C30D809304018BE090E00E94FA
:100F8000C30D809305018CE090E00E94C30D809317
:100F900006018DE090E00E94C30D8093070120E0E0
:100FA00030E0A90160910401709105018091060172
:100FB000909107010E949C0C81110CC080E090E090
:100FC000A0E8BFE38093040190930501A09306017C
:100FD000B0930701E0918101F091820182E080836A
:100FE000E0917D01F0917E011082E0917F01F0910E
:100FF000800180E1808310928901E0918501F09168
:10100000860186E08083E0918301F09184018081F4
:1010100080618083E0918301F09184018081886008
:101020008083E0918301F0918401808180688083D6
:10103000E0918301F091840180818F7D808362E063
:1010400082E00E94A10062E083E00E94A10062E0D1
:1010500084E00E94A10061E08DE00E94A1008BEF7E
:1010600091E0909301018093000180916900836079
:1010700080936900E89AF894109285001092840099
:10108000109281001092800080918100886080938E
:101090008100809181008160809381008091800037
:1010A0008F7080938000809181008D7F809381007C
:1010B000809181008160809381008FE79EE390930F
:1010C0008900809388007894332433949AE0492EE1
:1010D000512C612C712C2224239480916701882348
:1010E000B1F084E00E94E50190916601891779F0E2
:1010F000809366018325682F70E090E080E04AE0ED
:1011000050E00E94B70281E291E00E94660281E70E
:1011100091E00E943101892B41F081E791E00E942A
:101120000F018A30D9F520926501809165018823ED
:1011300009F411C144E050E070E060E0CE010D968A
:101140000E94EA0463E371E0CE010D960E948204DE
:10115000882309F447C010925D0110925E0110923D
:101160005F01109260011092610110926201109271
:101170006301109264011092550110925601109271
:101180005701109258011092590110925A01109271
:101190005B0110925C010E94A403CFC089831A8274
:1011A00000911202109113020F5F1F4FB8018EE0E1
:1011B00092E00E949704882309F4A9CF20910E029F
:1011C00030910F028091120290911302BE016F5F65
:1011D0007F4F820F931F0E9461121093130200939E
:1011E000120295CF68E371E0CE010D960E94820451
:1011F000882391F1409112025091130265E070E052
:10120000CE0101960E94EA0489819A81C12CD12CD9
:101210007601009721F00E94EB0A6B017C01CE0160
:1012200001960E94B40320E030E0A901C701B60195
:101230000E949C0C811103C020920801ACCF20E0D9
:1012400030E040E85FE3C701B6010E949C0C8111C9
:10125000A2CF109208019FCF6DE371E0CE010D96F1
:101260000E948204882309F41DC14091120250910A
:10127000130265E070E0CE0107960E94EA0463E283
:1012800071E0CE0107960E948204882309F4E2C02F
:1012900080916F008D7F80936F0080E50E94C00178
:1012A00080910801882309F470C0C0900401D09097
:1012B0000501E0900601F090070120E030E040E8F1
:1012C0005FE3C701B6010E949C0C20915D01309143
:1012D0005E0140915F0150916001609161017091E8
:1012E0006201811145C080916301909164010E9467
:1012F000E40270915D0160915E0150915F01409147
:1013000060013091610120916201909163018091AF
:1013100064017093550160935601509357014093B7
:1013200058013093590120935A0190935B018093A7
:101330005C01CE0107960E94B4031092650150E053
:1013400040E063E271E08EE092E00E94BF04CE01D3
:101350000D960E94B40380E090E0892B09F4BDCE85
:101360000E943D01882309F4B8CE0E940000B5CE4A
:1013700080916301909164010E940F10A701960172
:101380000E946E0F0E94BC03B4CF00915D011091CA
:101390005E0120915F0130916001409161015091A7
:1013A0006201609163017091640180915501909197
:1013B0005601A0915701B091580168017901C81AEE
:1013C000D90AEA0AFB0A70915D0160915E015091B1
:1013D0005F01409160013091610120916201909123
:1013E000630180916401709355016093560150939D
:1013F0005701409358013093590120935A0190931B
:101400005B0180935C0120E030E040E85FE36091A5
:1014100004017091050180910601909107010E94DD
:101420009C0C81110BC04AE050E0C701B6010E943C
:10143000B70281E291E00E9466027BCFC701B6014C
:10144000A30192010E944C0ECA01B90142E00E9420
:101450007302EFCF409112025091130266E070E0E8
:10146000CE0101960E94EA0489819A810097B1F029
:101470000E94EF0A609351017093520180935301CF
:1014800090935401CE0101960E94B4030E94A403DC
:1014900080916F00826080936F004BCF60E070E0BE
:1014A000CB01E8CF62E471E0CE010D960E94820488
:1014B000882309F457C0409112025091130266E04C
:1014C00070E0CE0101960E94EA0489819A81C12CC4
:1014D000D12C7601009721F00E94EB0A6B017C0170
:1014E000CE0101960E94B403809004019090050102
:1014F000A0900601B0900701A7019601C501B401B3
:101500000E949C0C882349F120E030E0A901C7012A
:10151000B6010E949C0C882301F1C0920401D09274
:101520000501E0920601F092070184E0E82E81E0D7
:10153000F82E0AE010E0F701D1907F01C8010E9467
:10154000C30DD81621F06D2DC8010E94CB0D0F5F81
:101550001F4F0E30110579F71ECEC501B4010E9450
:10156000BC0319CE67E471E0CE010D960E9482049F
:10157000882309F4E2CE809112029091130206971B
:1015800008F4DBCEE0910E02F0910F02309709F4DF
:10159000D4CE85818635A9F41092670184E00E943B
:1015A000E501809366018325682F70E090E080E07C
:1015B0004AE050E00E94B70281E291E00E94660298
:1015C000BCCE843509F0B9CE20926701E4CD8EE01F
:1015D00092E00C94B403662777270C942B0B1F938F
:1015E000FC0199278827BC01E89411911032E9F396
:1015F000193010F01E30C8F31B3251F01D3249F47F
:10160000689406C00E94160B610F711D811D911D0B
:10161000119110531A30B0F33EF490958095709567
:1016200061957F4F8F4F9F4F1F910895592F482FDE
:10163000372F262F660F771F881F991F660F771F7A
:10164000881F991F620F731F841F951F660F771FD6
:10165000881F991F0895B0E0A0E0E1E3FBE00C943F
:10166000EA0D5C017B016115710519F0DB018D93B9
:101670009C9385010F5F1F4FF501D0818D2F90E066
:101680000E947B0C6C01892BB9F5DD32B9F50F5F37
:101690001F4FD5011196DC91C1E05801F1E0AF1A5E
:1016A000B10843E050E060E770E0C5010E94840C9F
:1016B000892B69F5680182E0C80ED11C45E050E035
:1016C0006BE670E0C6010E94840C892B21F468014E
:1016D00097E0C90ED11CE114F10419F0D701CD92A5
:1016E000DC9260E070E080E89FEFC111FFC060E035
:1016F00070E080E89FE7FAC05801BBCFDB3229F4E5
:1017000085010E5F1F4FF501D181C0E0C6CF43E0D8
:1017100050E068E670E0C5010E94840C892BE9F076
:10172000F80110E000E020E030E0A9015F01B0ED39
:101730008B2E8D0E89E08815C8F19C2E689491F847
:101740008C2F8870C2FF16C0811102C00F5F1F4F1F
:101750003196D501DC91C92DE9CFE114F10429F0CE
:101760000E5F1F4FF7011183008360E070E080EC93
:101770009FE7BCC0882311F001501109A5E0B0E03B
:101780000E94D90D9B01AC01220F331F441F551F2E
:10179000280D311D411D511D283999E93907490787
:1017A00099E15907A8F2C6609C2ED2CFAEEF8A12FB
:1017B00006C0C3FD3CC09C2E689493F8C9CFDF7D62
:1017C000D534A9F580818D3239F4C061DF011296DC
:1017D000818162E070E006C0DF018B32C1F31196B7
:1017E00061E070E080535D01A61AB70A8A30F8F410
:1017F000E0E8CE16ECE0DE065CF4B601660F771F7B
:10180000660F771FC60ED71ECC0CDD1CC80ED11C70
:101810005D01FFEFAF1ABF0A8C9180538A30A8F1A7
:10182000C4FF03C0D194C194D1080C0D1D1DC1FF8C
:1018300009C0E114F10431F081E0A81AB108D70120
:10184000AD92BC92CA01B9010E94A10CC370C33011
:1018500009F490584B015C0120E030E0A9010E949E
:101860009C0C882309F440C0CFE9D0E017FF05C0E5
:10187000119501951109C7E8D0E06E01B8E1CB1AC6
:10188000D10880E2E82EF12C0FC0D501B1CFFE01C6
:1018900025913591459154910E191F09C501B40147
:1018A0000E94020D4B015C01D501C4010E151F05FC
:1018B00074F72497F594E794CC16DD06A9F78A2FE0
:1018C000880F8B2F881F8F3F49F020E030E0A9015F
:1018D000C501B4010E949C0C811106C082E290E017
:1018E0009093150280931402C501B401CDB7DEB701
:1018F000ECE00C94060E91110C946F0D803219F0EF
:1019000089508550C8F70895FB01DC0141505040D3
:1019100088F08D9181341CF08B350CF4805E6591DC
:1019200061341CF06B350CF4605E861B611171F341
:10193000990B0895881BFCCF0E94DE0C08F481E00F
:101940000895E89409C097FB3EF4909580957095B2
:1019500061957F4F8F4F9F4F9923A9F0F92F96E9FB
:10196000BB279395F695879577956795B795F11170
:10197000F8CFFAF4BB0F11F460FF1BC06F5F7F4F0D
:101980008F4F9F4F16C0882311F096E911C077231F
:1019900021F09EE8872F762F05C0662371F096E828
:1019A000862F70E060E02AF09A95660F771F881FF7
:1019B000DAF7880F9695879597F90895990F00089B
:1019C000550FAA0BE0E8FEEF16161706E807F90711
:1019D000C0F012161306E407F50798F0621B730BAC
:1019E000840B950B39F40A2661F0232B242B252B2D
:1019F00021F408950A2609F4A140A6958FEF811DD0
:101A0000811D08950E94150D0C94890D0E947B0D77
:101A100038F00E94820D20F0952311F00C94720D85
:101A20000C94780D11240C94BD0D0E949A0D70F346
:101A3000959FC1F3950F50E0551F629FF001729F73
:101A4000BB27F00DB11D639FAA27F00DB11DAA1F82
:101A5000649F6627B00DA11D661F829F2227B00DCF
:101A6000A11D621F739FB00DA11D621F839FA00D5A
:101A7000611D221F749F3327A00D611D231F849FAA
:101A8000600D211D822F762F6A2F11249F57504001
:101A90009AF0F1F088234AF0EE0FFF1FBB1F661F7C
:101AA000771F881F91505040A9F79E3F510580F045
:101AB0000C94720D0C94BD0D5F3FE4F3983ED4F38B
:101AC000869577956795B795F795E7959F5FC1F7E9
:101AD000FE2B880F911D9695879597F90895992764
:101AE0008827089597F99F6780E870E060E008957F
:101AF0009FEF80EC089500240A9416161706180626
:101B00000906089500240A94121613061406050601
:101B10000895092E0394000C11F4882352F0BB0F92
:101B200040F4BF2B11F460FF04C06F5F7F4F8F4FF5
:101B30009F4F089557FD9058440F551F59F05F3F30
:101B400071F04795880F97FB991F61F09F3F79F0DF
:101B500087950895121613061406551FF2CF469561
:101B6000F1DF08C0161617061806991FF1CF8695E3
:101B70007105610508940895E894BB2766277727C7
:101B8000CB0197F90895F999FECF92BD81BDF89ADE
:101B9000992780B50895262FF999FECF1FBA92BDD7
:101BA00081BD20BD0FB6F894FA9AF99A0FBE01963E
:101BB00008950E941B0EA59F900DB49F900DA49FA9
:101BC000800D911D112408952F923F924F925F92A4
:101BD0006F927F928F929F92AF92BF92CF92DF923D
:101BE000EF92FF920F931F93CF93DF93CDB7DEB7A2
:101BF000CA1BDB0B0FB6F894DEBF0FBECDBF099436
:101C00002A88398848885F846E847D848C849B848C
:101C1000AA84B984C884DF80EE80FD800C811B819A
:101C2000AA81B981CE0FD11D0FB6F894DEBF0FBEC9
:101C3000CDBFED010895A29FB001B39FC001A39F46
:101C4000700D811D1124911DB29F700D811D1124F5
:101C5000911D0895A1E21A2EAA1BBB1BFD010DC008
:101C6000AA1FBB1FEE1FFF1FA217B307E407F5074C
:101C700020F0A21BB30BE40BF50B661F771F881F28
:101C8000991F1A9469F760957095809590959B01BE
:101C9000AC01BD01CF010895052E97FB1EF4009401
:101CA0000E94630E57FD07D00E942A0E07FC03D046
:101CB0004EF40C94630E50954095309521953F4F0E
:101CC0004F4F5F4F089590958095709561957F4F28
:101CD0008F4F9F4F0895689401C0E8948F929F9210
:101CE000CF93DF930E94790EDF91CF919F908F90D9
:101CF000089588249924F401E401B0E49F93AA276D
:101D00009A158B049C04ED05FE05CF05D007A107AD
:101D100098F4AD2FDC2FCF2FFE2FE92D982C892E94
:101D2000982F872F762F652F542F432F322F22275E
:101D3000B85031F7BF9127C01B2EBF91BB27220F90
:101D4000331F441F551F661F771F881F991F881C4C
:101D5000991CEE1FFF1FCC1FDD1FAA1FBB1F8A147B
:101D60009B04EC05FD05CE05DF05A007B10748F093
:101D70008A189B08EC09FD09CE09DF09A00BB10BFD
:101D800021601A94E1F62EF49401AF01BE01CD0159
:101D9000000C0895609570958095909530954095CC
:101DA000509521953F4F4F4F5F4F6F4F7F4F8F4F54
:101DB0009F4F08950024A7FD00942A0F301D401D59
:101DC000501D601D701D801D901D08952A193B092E
:101DD0004C095D096E097F09800B910B0895002461
:101DE000A7FD00942A1730054005500560057005D1
:101DF000800590050895EE0FFF1F0590F491E02DEA
:101E000009945058BB27AA270E94190F0C94890DDA
:101E10000E947B0D38F00E94820D20F039F49F3F24
:101E200019F426F40C94780D0EF4E095E7FB0C946D
:101E3000720DE92F0E949A0D58F3BA1762077307C3
:101E40008407950720F079F4A6F50C94BC0D0EF4E8
:101E5000E0950B2EBA2FA02D0B01B90190010C01BA
:101E6000CA01A0011124FF27591B99F0593F50F4D2
:101E7000503E68F11A16F040A22F232F342F44272A
:101E8000585FF3CF469537952795A795F040539522
:101E9000C9F77EF41F16BA0B620B730B840BBAF0F2
:101EA0009150A1F0FF0FBB1F661F771F881FC2F75D
:101EB0000EC0BA0F621F731F841F48F48795779571
:101EC0006795B795F7959E3F08F0B0CF9395880F2B
:101ED00008F09927EE0F9795879508950E94820F35
:101EE0000C94890D0E94820D58F00E947B0D40F0E9
:101EF00029F45F3F29F00C94720D51110C94BD0D23
:101F00000C94780D0E949A0D68F39923B1F3552330
:101F100091F3951B550BBB27AA27621773078407FC
:101F200038F09F5F5F4F220F331F441FAA1FA9F392
:101F300035D00E2E3AF0E0E832D091505040E69580
:101F4000001CCAF72BD0FE2F29D0660F771F881FE1
:101F5000BB1F261737074807AB07B0E809F0BB0BD4
:101F6000802DBF01FF2793585F4F3AF09E3F5105E8
:101F700078F00C94720D0C94BD0D5F3FE4F3983E25
:101F8000D4F3869577956795B795F7959F5FC9F7D1
:101F9000880F911D9695879597F90895E1E0660F52
:101FA000771F881FBB1F621773078407BA0720F0CB
:101FB000621B730B840BBA0BEE1F88F7E095089534
:101FC0000E94A20D88F09F5798F0B92F9927B7511A
:101FD000B0F0E1F0660F771F881F991F1AF0BA95CD
:101FE000C9F714C0B13091F00E94BC0DB1E0089562
:101FF0000C94BC0D672F782F8827B85F39F0B93F54
:10200000CCF3869577956795B395D9F73EF490957F
:102010008095709561957F4F8F4F9F4F089597FBE7
:1020200016F40E9453100C941610E894F92F96EBB6
:10203000FF2381F0121613061406440B9395F695B0
:1020400087957795679557954040FF23B9F71BC053
:1020500099270895882351F49850D2F7872B762F2B
:10206000652F542F432F322F20E0B1F312161306A1
:102070001406440B88233AF09A95440F551F661FA7
:10208000771F881FCAF755234AF4440F551F11F4D0
:1020900060FF04C06F5F7F4F8F4F9F4F880F9695F3
:1020A000879597F9089590958095709560955095CE
:1020B0004095309521953F4F4F4F5F4F6F4F7F4F6A
:1020C0008F4F9F4F08950E94DE0C08F48FEF089504
:1020D0000E94DE0C880B990B08950F931F93CF93EA
:1020E000DF938230910510F482E090E0E0911802D5
:1020F000F091190230E020E0B0E0A0E0309799F4D0
:102100002115310509F44AC0281B390B243031054B
:10211000D8F58A819B816115710589F1FB01938353
:102120008283FE0111C040815181028113814817D1
:102130005907E0F04817590799F4109761F0129683
:102140000C93129713961C933296CF01DF91CF9187
:102150001F910F9108950093180210931902F4CF64
:102160002115310551F04217530738F0A901DB0161
:102170009A01BD01DF01F801C1CFEF01F9CF9093C2
:10218000190280931802CDCFFE01E20FF31F819355
:1021900091932250310939832883D7CF2091160299
:1021A00030911702232B41F420910B0130910C0147
:1021B00030931702209316022091090130910A01F1
:1021C0002115310541F42DB73EB740910D015091D5
:1021D0000E01241B350BE0911602F0911702E21755
:1021E000F307A0F42E1B3F0B2817390778F0AC013A
:1021F0004E5F5F4F2417350748F04E0F5F1F509317
:10220000170240931602819391939FCFF0E0E0E094
:102210009CCFCF93DF930097E9F0FC0132971382B4
:102220001282A0911802B0911902ED0130E020E075
:102230001097A1F420813181820F931F2091160203
:10224000309117022817390709F061C0F09317027F
:10225000E0931602DF91CF910895EA01CE17DF07D0
:10226000E8F54A815B819E0141155105B1F7E9010D
:10227000FB83EA8349915991C40FD51FEC17FD07E1
:1022800061F4808191810296840F951FE901998301
:102290008883828193819B838A83F0E0E0E01296B9
:1022A0008D919C9113970097B9F52D913C911197C1
:1022B000CD010296820F931F2091160230911702D2
:1022C0002817390739F6309751F5109219021092F4
:1022D0001802B0931702A0931602BCCFD383C28317
:1022E00040815181840F951FC817D90761F44E5F53
:1022F0005F4F88819981480F591F518340838A819C
:102300009B81938382832115310509F0B0CFF0932F
:102310001902E09318029ECFFD01DC01C0CF1382A9
:102320001282D7CFB0E0A0E0E8E9F1E10C94E60D2D
:102330008C01009751F4CB010E946D108C01C801F3
:10234000CDB7DEB7E0E10C94020EFC01E60FF71FFB
:102350009C0122503109E217F30708F49DC0D9010E
:10236000CD91DC911197C617D70798F0C530D105EC
:1023700030F3CE0104978617970708F3C61BD70BD7
:102380002297C193D1936D937C93CF010E94091141
:10239000D6CF5B01AC1ABD0A4C018C0E9D1EA091DC
:1023A0001802B0911902512C412CF12CE12C1097FC
:1023B00031F580911602909117028815990509F060
:1023C0005CC04616570608F058C0809109019091EC
:1023D0000A01009741F48DB79EB740910D015091CD
:1023E0000E01841B950BE817F90708F055C0F09310
:1023F0001702E0931602F90171836083A0CF8D91DB
:102400009C91119712966C90129713967C9013974B
:10241000A815B90559F56C0142E0C40ED11CCA14C7
:10242000DB0420F1AC014A195B09DA011296159719
:1024300080F06282738251834083D9016D937C93D3
:10244000E114F10471F0D7011396FC93EE93129707
:1024500076CF22968C0F9D1FF90191838083F30123
:10246000EFCFF0931902E093180269CF481659068E
:1024700008F42C017D01D3019ACFCB010E946D108D
:102480007C01009749F0AE01B8010E944F12C801CB
:102490000E940911870153CF10E000E050CFFB01EB
:1024A000DC0102C001900D9241505040D8F70895D0
:1024B000FB01DC018D91019080190110D9F3990B7A
:1024C0000895FB01DC0101900D920020E1F70895D1
:1024D00010E0C6E7D0E004C0FE010E94FB0E21968A
:0A24E000C737D107C9F7F894FFCF02
:1024EA00D200D2000000803F0100001A02800000E2
:1024FA000000007301D3000001C50131010F01235F
:10250A00010D0A004F6B006E616E00696E66006F06
:10251A007666004D333135004D333136004D333157
:0C252A0037004D333138004D333139009B
:00000001FF
